{
    "_format": "hh-sol-artifact-1",
    "contractName": "Partnership",
    "sourceName": "contracts/Partnership.sol",
    "abi": [
        {
            "inputs": [
                {
                    "internalType": "address payable[]",
                    "name": "_addresses",
                    "type": "address[]"
                },
                {
                    "internalType": "uint256[]",
                    "name": "_splitRatios",
                    "type": "uint256[]"
                }
            ],
            "stateMutability": "nonpayable",
            "type": "constructor"
        },
        {
            "inputs": [
                {
                    "internalType": "uint256",
                    "name": "",
                    "type": "uint256"
                }
            ],
            "name": "addresses",
            "outputs": [
                {
                    "internalType": "address payable",
                    "name": "",
                    "type": "address"
                }
            ],
            "stateMutability": "view",
            "type": "function"
        },
        {
            "inputs": [],
            "name": "getBalance",
            "outputs": [
                {
                    "internalType": "uint256",
                    "name": "",
                    "type": "uint256"
                }
            ],
            "stateMutability": "view",
            "type": "function"
        },
        {
            "inputs": [
                {
                    "internalType": "uint256",
                    "name": "",
                    "type": "uint256"
                }
            ],
            "name": "splitRatios",
            "outputs": [
                {
                    "internalType": "uint256",
                    "name": "",
                    "type": "uint256"
                }
            ],
            "stateMutability": "view",
            "type": "function"
        },
        {
            "inputs": [],
            "name": "withdraw",
            "outputs": [],
            "stateMutability": "nonpayable",
            "type": "function"
        },
        {
            "stateMutability": "payable",
            "type": "receive"
        }
    ],
    "bytecode": "0x60806040523480156200001157600080fd5b5060405162001024380380620010248339818101604052810190620000379190620004e6565b60018251116200007e576040517f08c379a00000000000000000000000000000000000000000000000000000000081526004016200007590620005f0565b60405180910390fd5b8151815114620000c5576040517f08c379a0000000000000000000000000000000000000000000000000000000008152600401620000bc9062000612565b60405180910390fd5b8160009080519060200190620000dd92919062000274565b508060019080519060200190620000f692919062000303565b506200015a60018054806020026020016040519081016040528092919081815260200182805480156200014957602002820191906000526020600020905b81548152602001906001019080831162000134575b50505050506200016860201b60201c565b60028190555050506200097b565b6000806000905060005b83518110156200026a576000848281518110620001b8577f4e487b7100000000000000000000000000000000000000000000000000000000600052603260045260246000fd5b60200260200101511162000203576040517f08c379a0000000000000000000000000000000000000000000000000000000008152600401620001fa90620005ce565b60405180910390fd5b8381815181106200023d577f4e487b7100000000000000000000000000000000000000000000000000000000600052603260045260246000fd5b602002602001015182620002529190620006cc565b9150808062000261906200079d565b91505062000172565b5080915050919050565b828054828255906000526020600020908101928215620002f0579160200282015b82811115620002ef5782518260006101000a81548173ffffffffffffffffffffffffffffffffffffffff021916908373ffffffffffffffffffffffffffffffffffffffff1602179055509160200191906001019062000295565b5b509050620002ff919062000355565b5090565b82805482825590600052602060002090810192821562000342579160200282015b828111156200034157825182559160200191906001019062000324565b5b50905062000351919062000355565b5090565b5b808211156200037057600081600090555060010162000356565b5090565b60006200038b62000385846200065d565b62000634565b90508083825260208201905082856020860282011115620003ab57600080fd5b60005b85811015620003df5781620003c488826200045e565b845260208401935060208301925050600181019050620003ae565b5050509392505050565b600062000400620003fa846200068c565b62000634565b905080838252602082019050828560208602820111156200042057600080fd5b60005b85811015620004545781620004398882620004cf565b84526020840193506020830192505060018101905062000423565b5050509392505050565b6000815190506200046f8162000947565b92915050565b600082601f8301126200048757600080fd5b81516200049984826020860162000374565b91505092915050565b600082601f830112620004b457600080fd5b8151620004c6848260208601620003e9565b91505092915050565b600081519050620004e08162000961565b92915050565b60008060408385031215620004fa57600080fd5b600083015167ffffffffffffffff8111156200051557600080fd5b620005238582860162000475565b925050602083015167ffffffffffffffff8111156200054157600080fd5b6200054f85828601620004a2565b9150509250929050565b600062000568602083620006bb565b915062000575826200085a565b602082019050919050565b60006200058f604383620006bb565b91506200059c8262000883565b606082019050919050565b6000620005b6603d83620006bb565b9150620005c382620008f8565b604082019050919050565b60006020820190508181036000830152620005e98162000559565b9050919050565b600060208201905081810360008301526200060b8162000580565b9050919050565b600060208201905081810360008301526200062d81620005a7565b9050919050565b60006200064062000653565b90506200064e828262000767565b919050565b6000604051905090565b600067ffffffffffffffff8211156200067b576200067a6200081a565b5b602082029050602081019050919050565b600067ffffffffffffffff821115620006aa57620006a96200081a565b5b602082029050602081019050919050565b600082825260208201905092915050565b6000620006d9826200075d565b9150620006e6836200075d565b9250827fffffffffffffffffffffffffffffffffffffffffffffffffffffffffffffffff038211156200071e576200071d620007eb565b5b828201905092915050565b600062000736826200073d565b9050919050565b600073ffffffffffffffffffffffffffffffffffffffff82169050919050565b6000819050919050565b620007728262000849565b810181811067ffffffffffffffff821117156200079457620007936200081a565b5b80604052505050565b6000620007aa826200075d565b91507fffffffffffffffffffffffffffffffffffffffffffffffffffffffffffffffff821415620007e057620007df620007eb565b5b600182019050919050565b7f4e487b7100000000000000000000000000000000000000000000000000000000600052601160045260246000fd5b7f4e487b7100000000000000000000000000000000000000000000000000000000600052604160045260246000fd5b6000601f19601f8301169050919050565b7f53706c697420726174696f2063616e206e6f742062652030206f72206c657373600082015250565b7f4d6f7265207468616e206f6e6520616464726573732073686f756c642062652060008201527f70726f766964656420746f2065737461626c697368206120706172746e65727360208201527f6869700000000000000000000000000000000000000000000000000000000000604082015250565b7f546865206164647265737320616d6f756e7420616e64207468652073706c697460008201527f20726174696f20616d6f756e742073686f756c6420626520657175616c000000602082015250565b620009528162000729565b81146200095e57600080fd5b50565b6200096c816200075d565b81146200097857600080fd5b50565b610699806200098b6000396000f3fe6080604052600436106100435760003560e01c806312065fe01461004f5780633ccfd60b1461007a5780637ab0d1e814610091578063edf26d9b146100ce5761004a565b3661004a57005b600080fd5b34801561005b57600080fd5b5061006461010b565b604051610071919061043a565b60405180910390f35b34801561008657600080fd5b5061008f610113565b005b34801561009d57600080fd5b506100b860048036038101906100b39190610352565b6102da565b6040516100c5919061043a565b60405180910390f35b3480156100da57600080fd5b506100f560048036038101906100f09190610352565b6102fe565b60405161010291906103df565b60405180910390f35b600047905090565b600061011d61010b565b90506000808054905090506000821161016b576040517f08c379a0000000000000000000000000000000000000000000000000000000008152600401610162906103fa565b60405180910390fd5b6002548210156101b0576040517f08c379a00000000000000000000000000000000000000000000000000000000081526004016101a79061041a565b60405180910390fd5b60005b818110156102d557600081815481106101f5577f4e487b7100000000000000000000000000000000000000000000000000000000600052603260045260246000fd5b9060005260206000200160009054906101000a900473ffffffffffffffffffffffffffffffffffffffff1673ffffffffffffffffffffffffffffffffffffffff166108fc60018381548110610273577f4e487b7100000000000000000000000000000000000000000000000000000000600052603260045260246000fd5b90600052602060002001546002548661028c9190610466565b6102969190610497565b9081150290604051600060405180830381858888f193505050501580156102c1573d6000803e3d6000fd5b5080806102cd9061052d565b9150506101b3565b505050565b600181815481106102ea57600080fd5b906000526020600020016000915090505481565b6000818154811061030e57600080fd5b906000526020600020016000915054906101000a900473ffffffffffffffffffffffffffffffffffffffff1681565b60008135905061034c8161064c565b92915050565b60006020828403121561036457600080fd5b60006103728482850161033d565b91505092915050565b610384816104f1565b82525050565b6000610397601483610455565b91506103a2826105d4565b602082019050919050565b60006103ba603583610455565b91506103c5826105fd565b604082019050919050565b6103d981610523565b82525050565b60006020820190506103f4600083018461037b565b92915050565b600060208201905081810360008301526104138161038a565b9050919050565b60006020820190508181036000830152610433816103ad565b9050919050565b600060208201905061044f60008301846103d0565b92915050565b600082825260208201905092915050565b600061047182610523565b915061047c83610523565b92508261048c5761048b6105a5565b5b828204905092915050565b60006104a282610523565b91506104ad83610523565b9250817fffffffffffffffffffffffffffffffffffffffffffffffffffffffffffffffff04831182151516156104e6576104e5610576565b5b828202905092915050565b60006104fc82610503565b9050919050565b600073ffffffffffffffffffffffffffffffffffffffff82169050919050565b6000819050919050565b600061053882610523565b91507fffffffffffffffffffffffffffffffffffffffffffffffffffffffffffffffff82141561056b5761056a610576565b5b600182019050919050565b7f4e487b7100000000000000000000000000000000000000000000000000000000600052601160045260246000fd5b7f4e487b7100000000000000000000000000000000000000000000000000000000600052601260045260246000fd5b7f496e73756666696369656e742062616c616e6365000000000000000000000000600082015250565b7f42616c616e63652073686f756c642062652067726561746572207468616e207460008201527f686520746f74616c2073706c697420726174696f730000000000000000000000602082015250565b61065581610523565b811461066057600080fd5b5056fea2646970667358221220e824519889872957ccc333bd14bc7149a8853707db6b31693cbf15e41603aa8064736f6c63430008040033",
    "linkReferences": {},
    "deployedLinkReferences": {}
}